:100AC2003F065B4F666D7D077F6F777C395E79717C
:010AD2000023
:020AEE00C180C5
:0D0AD300EFD3940040077E6EDEFE1F80F31F
:010AE00022F3
:10088C00C2A0C2A2E4FEEFC4131313540124FF92BE
:10089C00A1EF25E0FFD2A00000C2A00EBE08E7E445
:1008AC00FEEDC4131313540124FF92A1ED25E0FDBA
:1008BC00D2A00000C2A00EBE08E7E4FEEBC41313E6
:1008CC0013540124FF92A1EB25E0FBD2A00000C23F
:1008DC00A00EBE08E7E4FEE511C413131354012463
:1008EC00FF92A1E51125E0F511D2A00000C2A00EE7
:0908FC00BE08E4D2A20000C2A271
:0109050022CF
:10097A00AE12AF137C037DE81209E68F0DAE12AFFB
:10098A00137C037DE81209E67E007F64CFCDCFCECB
:10099A00CCCE1209E6AB07AE12AF137C007D64120F
:1009AA0009E67E007F0ACFCDCFCECCCE1209E6AAC9
:1009BA0007AE12AF137C007D0A1209E6AF053000BC
:1009CA001AEF900AC293F4FFEA93F4FDEB93F454FE
:0B09DA007FFBE50D93F4F51112088C73
:0109E50022EF
:100AAE00438901758CDCE4F58AD2A9D2AFC28CD20F
:040ABE00A8D2882210
:03000300020906E9
:10090600C0E0C0F0C083C082C0D075D000C000C0B7
:1009160002C003C004C005C006C00720B23D7F0A5E
:100926007E00120AD320B233208C13E513451260E1
:100936000D75120075130012097AD2008010308CE2
:1009460006C28CC2008007208C04D28CD20030B242
:10095600FD7F0A7E00120AD330B2FDD007D006D042
:1009660005D004D003D002D000D0D0D082D083D01E
:04097600F0D0E032AB
:0D0AE100120AAEE4F512F51312097A80FB3B
:03000B00020A5195
:100A5100C0E0C0F0C083C082C0D075D000C000C06B
:100A610001C002C003C004C005C006C007758CDC0C
:100A7100758A000513E51370020512AE12FFE4FC3E
:100A8100FD7BA07A867901F8C3120A3B7004F51246
:100A9100F513D007D006D005D004D003D002D00181
:0D0AA100D000D0D0D082D083D0F0D0E03291
:03000000020800F3
:0C080000787FE4F6D8FD758120020847DF
:1009E600BC000BBE0029EF8DF084FFADF022E4CCF5
:1009F600F875F008EF2FFFEE33FEEC33FCEE9DECBE
:100A0600984005FCEE9DFE0FD5F0E9E4CEFD22ED03
:100A1600F8F5F0EE8420D21CFEADF075F008EF2F4D
:100A2600FFED33FD4007985006D5F0F222C398FD3E
:050A36000FD5F0EA22DB
:100A3B00EB9FF5F0EA9E42F0E99D42F0EC6480C832
:060A4B0064809845F022D2
:10080C00020AE1E493A3F8E493A34003F68001F217
:10081C0008DFF48029E493A3F85407240CC8C333ED
:10082C00C4540F4420C8834004F456800146F6DFBC
:10083C00E4800B0102040810204080900AEEE47E54
:10084C00019360BCA3FF543F30E509541FFEE493B1
:10085C00A360010ECF54C025E060A840B8E493A378
:10086C00FAE493A3F8E493A3C8C582C8CAC583CAA3
:10087C00F0A3C8C582C8CAC583CADFE9DEE780BE5B
:010AF0000005
:00000001FF
